{
  "contractName": "DataStorage",
  "abi": [
    {
      "inputs": [],
      "payable": false,
      "stateMutability": "nonpayable",
      "type": "constructor"
    },
    {
      "anonymous": false,
      "inputs": [
        {
          "indexed": false,
          "internalType": "uint256",
          "name": "timeStamp",
          "type": "uint256"
        },
        {
          "indexed": false,
          "internalType": "uint256",
          "name": "version",
          "type": "uint256"
        },
        {
          "indexed": false,
          "internalType": "uint256",
          "name": "index",
          "type": "uint256"
        },
        {
          "indexed": false,
          "internalType": "enum DataStorage.dataCategory",
          "name": "category",
          "type": "uint8"
        },
        {
          "indexed": false,
          "internalType": "string",
          "name": "data",
          "type": "string"
        }
      ],
      "name": "broadcastDataEvent",
      "type": "event"
    },
    {
      "constant": true,
      "inputs": [
        {
          "internalType": "uint256",
          "name": "",
          "type": "uint256"
        }
      ],
      "name": "DataStorageEvents",
      "outputs": [
        {
          "internalType": "uint256",
          "name": "timeStamp",
          "type": "uint256"
        },
        {
          "internalType": "uint256",
          "name": "version",
          "type": "uint256"
        },
        {
          "internalType": "uint256",
          "name": "index",
          "type": "uint256"
        },
        {
          "internalType": "enum DataStorage.dataCategory",
          "name": "category",
          "type": "uint8"
        },
        {
          "internalType": "string",
          "name": "data",
          "type": "string"
        }
      ],
      "payable": false,
      "stateMutability": "view",
      "type": "function"
    },
    {
      "constant": true,
      "inputs": [],
      "name": "contractVersion",
      "outputs": [
        {
          "internalType": "uint256",
          "name": "",
          "type": "uint256"
        }
      ],
      "payable": false,
      "stateMutability": "view",
      "type": "function"
    },
    {
      "constant": true,
      "inputs": [],
      "name": "dappName",
      "outputs": [
        {
          "internalType": "string",
          "name": "",
          "type": "string"
        }
      ],
      "payable": false,
      "stateMutability": "view",
      "type": "function"
    },
    {
      "constant": true,
      "inputs": [],
      "name": "dataIndex",
      "outputs": [
        {
          "internalType": "uint256",
          "name": "",
          "type": "uint256"
        }
      ],
      "payable": false,
      "stateMutability": "view",
      "type": "function"
    },
    {
      "constant": true,
      "inputs": [],
      "name": "lastCalledTimeStamp",
      "outputs": [
        {
          "internalType": "uint256",
          "name": "",
          "type": "uint256"
        }
      ],
      "payable": false,
      "stateMutability": "view",
      "type": "function"
    },
    {
      "constant": false,
      "inputs": [
        {
          "internalType": "uint256",
          "name": "_category",
          "type": "uint256"
        },
        {
          "internalType": "string",
          "name": "_data",
          "type": "string"
        }
      ],
      "name": "broadcastData",
      "outputs": [],
      "payable": false,
      "stateMutability": "nonpayable",
      "type": "function"
    },
    {
      "constant": true,
      "inputs": [
        {
          "internalType": "uint256",
          "name": "_index",
          "type": "uint256"
        }
      ],
      "name": "retrieveData",
      "outputs": [
        {
          "components": [
            {
              "internalType": "uint256",
              "name": "timeStamp",
              "type": "uint256"
            },
            {
              "internalType": "uint256",
              "name": "version",
              "type": "uint256"
            },
            {
              "internalType": "uint256",
              "name": "index",
              "type": "uint256"
            },
            {
              "internalType": "enum DataStorage.dataCategory",
              "name": "category",
              "type": "uint8"
            },
            {
              "internalType": "string",
              "name": "data",
              "type": "string"
            }
          ],
          "internalType": "struct DataStorage.DataStorageEvent",
          "name": "historyData",
          "type": "tuple"
        }
      ],
      "payable": false,
      "stateMutability": "view",
      "type": "function"
    }
  ],
  "bytecode": "0x60806040526002600155600060025534801561001a57600080fd5b506040518060400160405280601181526020017f446174612053746f72616765202d2056320000000000000000000000000000008152506000908051906020019061006692919061006c565b50610111565b828054600181600116156101000203166002900490600052602060002090601f016020900481019282601f106100ad57805160ff19168380011785556100db565b828001600101855582156100db579182015b828111156100da5782518255916020019190600101906100bf565b5b5090506100e891906100ec565b5090565b61010e91905b8082111561010a5760008160009055506001016100f2565b5090565b90565b610e20806101206000396000f3fe608060405234801561001057600080fd5b506004361061007d5760003560e01c80635bee29b71161005b5780635bee29b7146100da578063a0a8e4601461010a578063b04aaced14610128578063f70bd6dd1461015c5761007d565b806318abfc121461008257806346b843f51461009e5780634f81c1ff146100bc575b600080fd5b61009c60048036036100979190810190610816565b61017a565b005b6100a66103ae565b6040516100b39190610bcd565b60405180910390f35b6100c46103b4565b6040516100d19190610b29565b60405180910390f35b6100f460048036036100ef91908101906107ed565b610452565b6040516101019190610bab565b60405180910390f35b6101126105be565b60405161011f9190610bcd565b60405180910390f35b610142600480360361013d91908101906107ed565b6105c4565b604051610153959493929190610be8565b60405180910390f35b61016461069f565b6040516101719190610bcd565b60405180910390f35b6000821015801561018c575060028211155b6101cb576040517f08c379a00000000000000000000000000000000000000000000000000000000081526004016101c290610b6b565b60405180910390fd5b600081511161020f576040517f08c379a000000000000000000000000000000000000000000000000000000000815260040161020690610b8b565b60405180910390fd5b600260008154809291906001019190505550426003819055506040518060a0016040528060035481526020016001548152602001600254815260200183600281111561025757fe5b600281111561026257fe5b81526020018281525060046000600254815260200190815260200160002060008201518160000155602082015181600101556040820151816002015560608201518160030160006101000a81548160ff021916908360028111156102c257fe5b021790555060808201518160040190805190602001906102e39291906106a5565b509050507fa01fcb30a1bc454e20d5507c386539c7775c329c70050c0b57c7ee7036fda90560046000600254815260200190815260200160002060000154600460006002548152602001908152602001600020600101546004600060025481526020019081526020016000206002015460046000600254815260200190815260200160002060030160009054906101000a900460ff166004600060025481526020019081526020016000206004016040516103a2959493929190610c42565b60405180910390a15050565b60035481565b60008054600181600116156101000203166002900480601f01602080910402602001604051908101604052809291908181526020018280546001816001161561010002031660029004801561044a5780601f1061041f5761010080835404028352916020019161044a565b820191906000526020600020905b81548152906001019060200180831161042d57829003601f168201915b505050505081565b61045a610725565b6000821015801561046d57506002548211155b6104ac576040517f08c379a00000000000000000000000000000000000000000000000000000000081526004016104a390610b4b565b60405180910390fd5b600460008381526020019081526020016000206040518060a00160405290816000820154815260200160018201548152602001600282015481526020016003820160009054906101000a900460ff16600281111561050657fe5b600281111561051157fe5b8152602001600482018054600181600116156101000203166002900480601f0160208091040260200160405190810160405280929190818152602001828054600181600116156101000203166002900480156105ae5780601f10610583576101008083540402835291602001916105ae565b820191906000526020600020905b81548152906001019060200180831161059157829003601f168201915b5050505050815250509050919050565b60015481565b60046020528060005260406000206000915090508060000154908060010154908060020154908060030160009054906101000a900460ff1690806004018054600181600116156101000203166002900480601f0160208091040260200160405190810160405280929190818152602001828054600181600116156101000203166002900480156106955780601f1061066a57610100808354040283529160200191610695565b820191906000526020600020905b81548152906001019060200180831161067857829003601f168201915b5050505050905085565b60025481565b828054600181600116156101000203166002900490600052602060002090601f016020900481019282601f106106e657805160ff1916838001178555610714565b82800160010185558215610714579182015b828111156107135782518255916020019190600101906106f8565b5b509050610721919061075f565b5090565b6040518060a001604052806000815260200160008152602001600081526020016000600281111561075257fe5b8152602001606081525090565b61078191905b8082111561077d576000816000905550600101610765565b5090565b90565b600082601f83011261079557600080fd5b81356107a86107a382610cc9565b610c9c565b915080825260208301602083018583830111156107c457600080fd5b6107cf838284610d66565b50505092915050565b6000813590506107e781610dc6565b92915050565b6000602082840312156107ff57600080fd5b600061080d848285016107d8565b91505092915050565b6000806040838503121561082957600080fd5b6000610837858286016107d8565b925050602083013567ffffffffffffffff81111561085457600080fd5b61086085828601610784565b9150509250929050565b61087381610d54565b82525050565b61088281610d54565b82525050565b600061089382610d0a565b61089d8185610d15565b93506108ad818560208601610d75565b6108b681610da8565b840191505092915050565b60006108cc82610d0a565b6108d68185610d26565b93506108e6818560208601610d75565b6108ef81610da8565b840191505092915050565b600081546001811660008114610917576001811461093d57610981565b607f60028304166109288187610d26565b955060ff198316865260208601935050610981565b6002820461094b8187610d26565b955061095685610cf5565b60005b8281101561097857815481890152600182019150602081019050610959565b80880195505050505b505092915050565b6000610996602883610d26565b91507f496e646578206f6620646174612073686f756c6420626520696e20612076616960008301527f6c642072616e67650000000000000000000000000000000000000000000000006020830152604082019050919050565b60006109fc602c83610d26565b91507f5468652063617465676f72792073686f756c6420626520696e2074686520636f60008301527f72726563742072616e67652100000000000000000000000000000000000000006020830152604082019050919050565b6000610a62601d83610d26565b91507f54686520646174612073686f756c64206e6f7420626520656d707479210000006000830152602082019050919050565b600060a083016000830151610aad6000860182610b0b565b506020830151610ac06020860182610b0b565b506040830151610ad36040860182610b0b565b506060830151610ae6606086018261086a565b5060808301518482036080860152610afe8282610888565b9150508091505092915050565b610b1481610d4a565b82525050565b610b2381610d4a565b82525050565b60006020820190508181036000830152610b4381846108c1565b905092915050565b60006020820190508181036000830152610b6481610989565b9050919050565b60006020820190508181036000830152610b84816109ef565b9050919050565b60006020820190508181036000830152610ba481610a55565b9050919050565b60006020820190508181036000830152610bc58184610a95565b905092915050565b6000602082019050610be26000830184610b1a565b92915050565b600060a082019050610bfd6000830188610b1a565b610c0a6020830187610b1a565b610c176040830186610b1a565b610c246060830185610879565b8181036080830152610c3681846108c1565b90509695505050505050565b600060a082019050610c576000830188610b1a565b610c646020830187610b1a565b610c716040830186610b1a565b610c7e6060830185610879565b8181036080830152610c9081846108fa565b90509695505050505050565b6000604051905081810181811067ffffffffffffffff82111715610cbf57600080fd5b8060405250919050565b600067ffffffffffffffff821115610ce057600080fd5b601f19601f8301169050602081019050919050565b60008190508160005260206000209050919050565b600081519050919050565b600082825260208201905092915050565b600082825260208201905092915050565b6000819050610d4582610db9565b919050565b6000819050919050565b6000610d5f82610d37565b9050919050565b82818337600083830152505050565b60005b83811015610d93578082015181840152602081019050610d78565b83811115610da2576000848401525b50505050565b6000601f19601f8301169050919050565b60038110610dc357fe5b50565b610dcf81610d4a565b8114610dda57600080fd5b5056fea365627a7a723158207521501b319a3e311c5f68a3ed0207284bb5a1911cafb0dcc209a048665ee3966c6578706572696d656e74616cf564736f6c63430005100040",
  "source": "/*\n * @Author: Zitian(Daniel) Tong\n * @Date: 2020-06-24 16:03:03\n * @LastEditTime: 2020-07-24 17:13:48\n * @LastEditors: Zitian(Daniel) Tong\n * @Description: Smart Contract Code\n * @FilePath: /Blockchain_Data_Storage/src/contracts/DataStorage.sol\n */\n\npragma solidity ^0.5.0;\npragma experimental ABIEncoderV2;\n\n\n// contract code\ncontract DataStorage {\n    string public dappName;         // name of dapp\n    uint256 public contractVersion = 2; // contract version\n    uint256 public dataIndex = 0;       // index of data\n    uint256 public lastCalledTimeStamp;\n\n    // define category enum\n    enum dataCategory { normal, traffic_data, incident}\n\n    // define the data structure\n    struct DataStorageEvent {\n        uint256 timeStamp;\n        uint256 version;\n        uint256 index;\n        dataCategory category;\n        string data;\n    }\n\n    // mapping address to DataStorageEvents\n    mapping(uint256 => DataStorageEvent) public DataStorageEvents;\n\n    // contract constractor\n    constructor() public {\n        dappName = \"Data Storage - V2\";\n    }\n\n    // broadcast datastruct\n    event broadcastDataEvent(\n        uint256 timeStamp,\n        uint256 version,\n        uint256 index,\n        dataCategory category,\n        string data\n    );\n    \n    // send data to ETH blockchain\n    function broadcastData(\n        uint256 _category,  // category of data\n        string memory _data             // data string\n    ) public {\n        // some requirements before executing the function\n        require(_category >= 0 && _category <= 2, \"The category should be in the correct range!\" );\n        require(bytes(_data).length > 0, \"The data should not be empty!\");\n\n        // accumulate the dataIndex\n        dataIndex++;\n        // get current timestamp\n        lastCalledTimeStamp = now;\n\n        // save info to the local datastruct\n        DataStorageEvents[dataIndex] = DataStorageEvent(\n            lastCalledTimeStamp,\n            contractVersion,\n            dataIndex,\n            dataCategory(_category),\n            _data\n        );\n\n        // broadcast to the network\n        emit broadcastDataEvent(\n            DataStorageEvents[dataIndex].timeStamp,\n            DataStorageEvents[dataIndex].version,\n            DataStorageEvents[dataIndex].index,\n            DataStorageEvents[dataIndex].category,\n            DataStorageEvents[dataIndex].data\n        );\n    }\n\n    // retrieve the from the network\n    function retrieveData(\n        uint256 _index\n    ) public view returns(\n        DataStorageEvent memory  historyData\n    ) {\n        // require the dataindex is within the valid range [0, mostcurrent]\n        require(_index >= 0 && _index <= dataIndex, \"Index of data should be in a vaild range\");\n\n        //return DataStorageEvents[_index];\n        return DataStorageEvents[_index];\n    }\n\n}",
  "sourcePath": "/Users/danieltongawesome/Library/Mobile Documents/com~apple~CloudDocs/Study/Blockchain_Data_Storage/src/contracts/DataStorage.sol",
  "compiler": {
    "name": "solc",
    "version": "0.5.16+commit.9c3226ce.Emscripten.clang"
  },
  "schemaVersion": "3.2.0",
  "updatedAt": "2020-07-25T00:14:59.275Z",
  "devdoc": {
    "methods": {}
  },
  "userdoc": {
    "methods": {}
  }
}